:100000000C947C000C94A4000C94A4000C94A40008
:100010000C94A4000C94A4000C94A4000C94A400D0
:100020000C94A4000C94A4000C94A4000C946D04F3
:100030000C94A4000C94A4000C94A4000C94A400B0
:100040000C94CB030C94A4000C943B040C94150466
:100050000C94A4000C94A4000C94A4000C94A40090
:100060000C94A4000C94A4004E414E494E4954599E
:10007000494E46CDCCCC3D0AD7233C17B7D1387773
:10008000CC2B329595E6241FB14F0A000020410089
:1000900000C84200401C4620BCBE4CCA1B0E5AAED3
:1000A000C59D7400000000240027002A0000000005
:1000B00000250028002B00040404040404040402A6
:1000C00002020202020303030303030102040810F5
:1000D00020408001020408102001020408102000C2
:1000E00000000800020100000304070000000000F7
:1000F000000000002905C50811241FBECFEFD8E07D
:10010000DEBFCDBF11E0A0E0B1E0E6E8FDE102C056
:1001100005900D92A432B107D9F722E0A4E2B1E034
:1001200001C01D92A530B207E1F710E0CBE7D0E0A7
:1001300004C02197FE010E94B30CCA37D107C9F74A
:100140000E9499050C94B60E0C940000CF92DF9299
:10015000EF92FF92DC01A03282E0B807D4F5A53B14
:10016000B10514F0A4EBB0E04091FD0128E830E0C7
:10017000241B310947FD3395220F331F220F331FF4
:100180006901330FEE08FF084091FE0128E532E0D7
:10019000241B310947FD3395220F331F220F331FD4
:1001A000032E000C440B550B2C193D094E095F0919
:1001B000B7FF02C0B0E0A0E00E948F0B24EB30E05C
:1001C00040E050E00E94650BC20ED31EE41EF51EF7
:1001D000D601E091FC01EC3080F52091FD0188E82A
:1001E00090E0821B910927FD9395880F991F880F36
:1001F000991FA817B90784F02091FE0188E592E0C5
:10020000821B910927FD9395880F991F880F991FCD
:10021000A817B9070CF4CD010297880F991F4FB7A3
:10022000F8942E2F30E0F901EE0FFF1FE20FF31FBD
:10023000EF52FE4F928381834FBFFF90EF90DF908C
:10024000CF90089590E0FC01E152FF4F2491FC0112
:10025000E553FF4F3491FC01E954FF4FE491EE2345
:10026000C9F0222339F0233001F1A8F4213019F12B
:10027000223029F1F0E0EE0FFF1FE355FF4FA5916B
:10028000B4918FB7F894EC91611126C030953E235C
:100290003C938FBF08952730A9F02830C9F024304F
:1002A00049F7809180008F7D03C0809180008F7717
:1002B00080938000DFCF84B58F7784BDDBCF84B59A
:1002C0008F7DFBCF8091B0008F778093B000D2CF2D
:1002D0008091B0008F7DF9CF3E2BDACFCF93DF93A3
:1002E00090E0FC01E553FF4F249189549F4FFC019E
:1002F00084918823D1F090E0880F991FFC01ED557F
:10030000FF4FA591B491FC01E355FF4FC591D491E6
:1003100061110EC09FB7F8948C91E22FE0958E2367
:100320008C932881E223E8839FBFDF91CF910895CA
:100330008FB7F894EC91E22BEC938FBFF6CF1F931D
:10034000CF93DF93182FEB0161E00E946E0120979D
:1003500039F460E0812FDF91CF911F910C9422013D
:10036000CF3FD10511F461E0F5CFE12FF0E0E1528C
:10037000FF4FE491E33031F140F4E130B1F0E2308D
:10038000E1F0C038D1057CF7E4CFE73029F1E8305F
:1003900059F1E430B1F78091800080628093800051
:1003A000D0938B00C0938A0004C084B5806884BD5C
:1003B000C7BDDF91CF911F91089584B5806284BD40
:1003C000C8BDF7CF80918000806880938000D09373
:1003D0008900C0938800EDCF8091B0008068809341
:1003E000B000C093B300E5CF8091B00080628093ED
:1003F000B000C093B400DDCFAF92BF92CF92DF9236
:10040000EF92FF920F931F93CF93DF936C017B01C9
:100410008B01040F151FEB015E01AE18BF08C0175A
:10042000D10759F06991D601ED91FC910190F081CD
:10043000E02DC6010995892B79F7C501DF91CF9190
:100440001F910F91FF90EF90DF90CF90BF90AF90F2
:100450000895FC01538D448D252F30E0842F90E0CA
:10046000821B930B541710F0CF96089501970895AF
:10047000FC01918D828D981761F0A28DAE0FBF2F78
:10048000B11D5D968C91928D9F5F9F73928F90E0CE
:1004900008958FEF9FEF0895FC01918D828D98173D
:1004A00031F0828DE80FF11D858D90E008958FEF7A
:1004B0009FEF0895FC01918D228D892F90E0805C43
:1004C0009F4F821B91098F739927089584E391E0D0
:1004D0000E945A0221E0892B09F420E0822F08951E
:1004E00080E090E0892B29F00E94660281110C9433
:1004F00000000895FC01A48DA80FB92FB11DA35AC7
:10050000BF4F2C91848D90E001968F739927848F33
:10051000A689B7892C93A089B1898C918370806456
:100520008C93938D848D981306C00288F389E02DF7
:1005300080818F7D80830895EF92FF920F931F93A8
:10054000CF93DF93EC0181E0888F9B8D8C8D981386
:100550001AC0E889F989808185FF15C09FB7F89492
:10056000EE89FF896083E889F989808183708064DE
:1005700080839FBF81E090E0DF91CF911F910F9129
:10058000FF90EF900895F62E0B8D10E00F5F1F4F38
:100590000F731127E02E8C8D8E110CC00FB607FC47
:1005A000FACFE889F989808185FFF5CFCE010E94D5
:1005B0007A02F1CFEB8DEC0FFD2FF11DE35AFF4FC7
:1005C000F0829FB7F8940B8FEA89FB898081806263
:1005D000CFCFCF93DF93EC01888D8823B9F0AA8920
:1005E000BB89E889F9898C9185FD03C0808186FDEE
:1005F0000DC00FB607FCF7CF8C9185FFF2CF80813D
:1006000085FFEDCFCE010E947A02E9CFDF91CF9135
:100610000895FC0180819181009711F00C94550D93
:1006200008950F931F93CF93DF93EC0188819981F5
:10063000009759F02A813B812617370730F081E077
:10064000DF91CF911F910F9108958B016F5F7F4FC5
:100650000E94DE0D009759F0998388831B830A83DB
:100660002C813D81232B59F7FC011082E8CF80E0DB
:10067000E7CFEF92FF920F931F93CF93DF93EC019D
:100680007B018A01BA010E941103288139818111FD
:1006900014C02115310519F0C9010E94550D1982A8
:1006A00018821D821C821B821A82CE01DF91CF919B
:1006B0001F910F91FF90EF9008951D830C83B70158
:1006C000C9010E94AF0EF1CFAF92BF92CF92DF92DD
:1006D000EF92FF920F931F93CF93DF93EC016B0187
:1006E0005A0179012417350720F48B2D5901E42E86
:1006F000F82E198218821B821A821D821C8250E0F9
:1007000040E063E271E0CE010E943903D601149605
:100710000D911C91A016B10628F5E016F10608F41B
:100720008701D601ED91FC911197E00FF11FF08048
:1007300010826D917C916A0D7B1D61157105F1F040
:10074000FB0101900020E9F73197AF01461B570BE1
:10075000CE010E943903F60180819181080F191F93
:10076000D801FC92CE01DF91CF911F910F91FF90A4
:10077000EF90DF90CF90BF90AF90089588819981DE
:10078000009711F00E94550D198218821D821C825B
:100790001B821A82E0CF1F920F920FB60F92112484
:1007A0002F933F938F939F93AF93BF93809130018B
:1007B00090913101A0913201B091330130912F011C
:1007C00023E0230F2D3758F50196A11DB11D20936D
:1007D0002F018093300190933101A0933201B093A7
:1007E000330180912B0190912C01A0912D01B091AA
:1007F0002E010196A11DB11D80932B0190932C0118
:10080000A0932D01B0932E01BF91AF919F918F9135
:100810003F912F910F900FBE0F901F90189526E8D3
:10082000230F0296A11DB11DD2CF1F920F920FB6BA
:100830000F9211242F933F934F935F936F937F9366
:100840008F939F93AF93BF93EF93FF9384E391E0D4
:100850000E947A02FF91EF91BF91AF919F918F918A
:100860007F916F915F914F913F912F910F900FBEAC
:100870000F901F9018951F920F920FB60F92112490
:100880002F938F939F93EF93FF93E0914401F09107
:1008900045018081E0914A01F0914B0182FD1BC02E
:1008A000908180914D018F5F8F7320914E0182174F
:1008B00041F0E0914D01F0E0EC5CFE4F958F8093AC
:1008C0004D01FF91EF919F918F912F910F900FBE4E
:1008D0000F901F9018958081F4CF1F920F920FB642
:1008E0000F9211242F933F934F935F936F937F93B6
:1008F0008F939F93AF93BF93CF93DF93EF93FF9328
:1009000080912401C091F501D0E087FF24C01092AE
:10091000850010928400809124018F5F80932401D0
:1009200080912401082E000C990B8C179D0724F44C
:10093000809124018C30C4F18091840090918500D5
:10094000049680349C4908F47AC080918400909188
:100950008500049676C080912401082E000C990B26
:100960008C179D07C4F6E09124018E2FEE0F990B92
:10097000FC01EE0FFF1FE80FF91FEF52FE4F8081C1
:1009800086FFC9CFE09124018E2FEE0F990BFC0159
:10099000EE0FFF1FE80FF91FEF52FE4F808160E05E
:1009A0008F730E942201B7CF20918400309185007F
:1009B000E09124018E2FEE0F990BFC01EE0FFF1F2B
:1009C000E80FF91FEF52FE4F81819281820F931F32
:1009D0009093890080938800E09124018E2FEE0F80
:1009E000990BFC01EE0FFF1FE80FF91FEF52FE4FAE
:1009F000808186FF11C0E09124018E2FEE0F990BAC
:100A0000FC01EE0FFF1FE80FF91FEF52FE4F808130
:100A100061E08F730E942201FF91EF91DF91CF91EE
:100A2000BF91AF919F918F917F916F915F914F9106
:100A30003F912F910F900FBE0F901F90189580E45B
:100A40009CE990938900809388008FEF8093240124
:100A5000E3CF109237011092360188EE93E0A0E0C8
:100A6000B0E08093380190933901A0933A01B0939C
:100A70003B018AE091E0909335018093340185EC4D
:100A800090E0909341018093400184EC90E090933A
:100A900043018093420180EC90E090934501809364
:100AA000440181EC90E0909347018093460182ECF1
:100AB00090E0909349018093480186EC90E09093F8
:100AC0004B0180934A0110924D0110924E011092F9
:100AD0004F01109250018091F5018C3030F591E07A
:100AE000980F9093F5018093FC0190E0FC01EE0FCC
:100AF000FF1FE80FF91FEF52FE4F88EB9BE0928338
:100B000081831092F7011092F6011092F901109270
:100B1000F8011092FB011092FA0150E040E063E20C
:100B200071E086EF91E00C9439038FEF8093FC0124
:100B3000E8CFCF93DF93CDB7DEB760970FB6F894C9
:100B4000DEBF0FBECDBF789484B5826084BD84B50E
:100B5000816084BD85B5826085BD85B5816085BDB8
:100B600080916E00816080936E0010928100809170
:100B700081008260809381008091810081608093F8
:100B80008100809180008160809380008091B1001D
:100B900084608093B1008091B00081608093B00048
:100BA00080917A00846080937A0080917A008260DC
:100BB00080937A0080917A00816080937A0080919E
:100BC0007A00806880937A001092C100E09144011D
:100BD000F091450182E08083E0914001F091410174
:100BE0001082E0914201F09143018FEC80831092DA
:100BF0004C01E0914801F091490186E08083E09149
:100C00004601F0914701808180618083E091460137
:100C1000F0914701808188608083E0914601F091E6
:100C20004701808180688083E0914601F09147010F
:100C300080818F7D808348E050E068E171E084E34B
:100C400091E00E94FC0142E050E061E271E084E347
:100C500091E00E94FC018091FC018C3008F051C0B1
:100C600061E080E10E946E018091FC01282F30E05C
:100C7000F901EE0FFF1FE20FF31FEF52FE4F9081BD
:100C8000907C906190831092FD011092FE012CE007
:100C9000622F0E94A70C829FB001112430E020E057
:100CA000AB01420F531FFA01EE0FFF1FE40FF51FB8
:100CB000EF52FE4F908196FD16C02F5F3F4F2C30B4
:100CC000310571F781110FC01092800082E080938E
:100CD00081001092850010928400B19A80916F007B
:100CE000826080936F00E091FC018E2F90E0FC0108
:100CF000EE0FFF1FE80FF91FEF52FE4F8081806457
:100D0000808361E08FE00E946E0160E08EE00E94CF
:100D10006E0161E082E00E946E0161E084E00E9469
:100D20006E0161E087E00E946E0161E088E00E9450
:100D30006E0161E085E00E946E0161E086E00E9444
:100D40006E0110922A01109229011092280110922E
:100D5000270110922601109225018AE590E00E9459
:100D6000A600F0E02F2EF0E03F2E68EC70E085E06A
:100D70000E949F0168EC70E086E00E949F0184E37E
:100D800091E00E945A02892B09F4F3C184E391E0B7
:100D90000E943802F82E89831A820091FA0110917C
:100DA000FB010F5F1F4FB80186EF91E00E94110316
:100DB000882399F02091F6013091F7018091FA0192
:100DC0009091FB01BE016F5F7F4F820F931F0E94C6
:100DD000AF0E1093FB010093FA012AE0F212CFCF7D
:100DE00018861F821A8619861C861B866091F6015A
:100DF0007091F7016115710541F04091FA01509130
:100E0000FB01CE0107960E943903CF80D884C1141C
:100E1000D10439F00B851C8576010115110509F007
:100E20003FC10B851C850115110561F0EF80F88429
:100E30006AE370E0C7010E94A40E6C01CE18DF08BF
:100E4000892B19F4CC24CA94DC2C7601FFEFEF1A1D
:100E5000FF0AE016F10670F4AF80B8846AE370E030
:100E6000C5018E0D9F1D0E94A40E8C010A191B093D
:100E7000892B11F40FEF1FEF960150E040E0BE0107
:100E8000695F7F4FCE0101960E94640389819A8138
:100E9000812C912C5401009721F00E94C9084B012C
:100EA0005C01CE0101960E9409039801A701BE01D1
:100EB000695F7F4FCE0101960E94640389819A8108
:100EC000412C512C3201009721F00E94C9082B01BE
:100ED0003C01CE0101960E9409032B853C85A801A7
:100EE0004F5F5F4FBE01695F7F4FCE0101960E9449
:100EF000640389819A81C12CD12C7601009721F05D
:100F00000E94C9086B017C01CE0101960E94090371
:100F10002DEC3CEC4CEC5EE3C701B6010E94A20C48
:100F200018160CF079C08091FE0158E5C52E52E0EC
:100F3000D52EC81AD10887FDD394CC0CDD1CCC0C5F
:100F4000DD1CC601DD0CAA0BBB0B8D879E87AF870E
:100F5000B88B8091FD01A8E8B0E0A81BB10987FD1E
:100F6000B395CD01880F991F880F991F6C01990FB8
:100F7000EE08FF088091FC018F3F09F4C7C090E0A4
:100F8000FC01EE0FFF1FE80FF91FEF52FE4F8181AA
:100F9000928133E0880F991F3A95E1F7B0E0A0E025
:100FA00044E0B595A795979587954A95D1F7029610
:100FB0009C012F5F3F4F032E000C440B550B2C1947
:100FC0003D094E095F09A4EBB0E00E94840B2D851A
:100FD0003E854F8558892C193D094E095F090E94AD
:100FE000650BB901330F880B990B0E94450A6B0101
:100FF0007C0120E030E040E051E4C501B4010E94F2
:10100000A40A9B01AC01C701B6010E94000C0E941A
:101010006C0CCB010E94A6002DEC3CEC4CEC5EE38A
:10102000C501B4010E94A20C18160CF072C060E059
:1010300087E00E94220161E088E00E94220160E0D6
:1010400082E00E94220161E084E00E9422012DECF6
:101050003CEC4CEC5EE3C301B2010E94A20C1816FA
:101060000CF06FC061E087E00E94220160E088E040
:101070000E94220160E082E00E94220161E084E09F
:101080000E942201CE0107960E94090350E040E031
:1010900063E271E086EF91E00E94390370CE750142
:1010A00057013FEFA31AB30AD7018C91082E000C09
:1010B000990B0E941D0A892B91F7015011090C0D03
:1010C0001D1DF8018081082E000C990B0E941D0A3D
:1010D000892B31F00E151F0518F001501109F1CFC1
:1010E0000F5F1F4FA8014E195F095C874B87CE1415
:1010F000DF0420F4B701C6010E949B0EEF81F88542
:101100008B859C85E80FF91F10828BCE90E080E0E4
:101110004FCF2DEC3CEC4CEC5EEBC501B4010E94D2
:101120003E0A87FF94CF61E087E00E94220160E0E1
:1011300088E00E94220161E082E00E94220160E0DA
:1011400083CF2DEC3CEC4CEC5EEBC301B2010E9472
:101150003E0A87FF97CF60E087E00E94220161E0AE
:1011600088E00E94220161E082E00E94220160E0AA
:1011700086CF2114310409F4F8CD0E946602882339
:1011800009F4F3CD0E940000F0CD86EF91E00C94BD
:101190000903662777270C94CD08B0E0A0E0E3EDC3
:1011A000F8E00C949D0B5C017B016115710519F051
:1011B000DB018D939C9385010F5F1F4FF501D0815B
:1011C0008D2F90E00E941D0A6C01892BB9F5DD324C
:1011D000B9F50F5F1F4FD5011196DC91C1E05801A1
:1011E000F1E0AF1AB10843E050E060E770E0C501FC
:1011F0000E94260A892B69F5680182E0C80ED11C7D
:1012000045E050E06BE670E0C6010E94260A892B9B
:1012100021F4680197E0C90ED11CE114F10419F022
:10122000D701CD92DC9260E070E080E89FEFC111C1
:10123000FFC060E070E080E89FE7FAC05801BBCFD4
:10124000DB3229F485010E5F1F4FF501D181C0E02B
:10125000C6CF43E050E068E670E0C5010E94260A70
:10126000892BE9F0F80110E000E020E030E0A9016E
:101270005F01B0ED8B2E8D0E89E08815C8F19C2E94
:10128000689491F88C2F8870C2FF16C0811102C03B
:101290000F5F1F4F3196D501DC91C92DE9CFE114C5
:1012A000F10429F00E5F1F4FF7011183008360E006
:1012B00070E080EC9FE7BCC0882311F00150110959
:1012C000A5E0B0E00E94840B9B01AC01220F331F0C
:1012D000441F551F280D311D411D511D283999E905
:1012E0003907490799E15907A8F2C6609C2ED2CF69
:1012F000AEEF8A1206C0C3FD3CC09C2E689493F8E2
:10130000C9CFDF7DD534A9F580818D3239F4C06134
:10131000DF011296818162E070E006C0DF018B324E
:10132000C1F3119661E070E080535D01A61AB70A1F
:101330008A30F8F4E0E8CE16ECE0DE065CF4B601A4
:10134000660F771F660F771FC60ED71ECC0CDD1CED
:10135000C80ED11C5D01FFEFAF1ABF0A8C918053FC
:101360008A30A8F1C4FF03C0D194C194D1080C0DF8
:101370001D1DC1FF09C0E114F10431F081E0A81A7C
:10138000B108D701AD92BC92CA01B9010E94430ACB
:10139000C370C33009F490584B015C0120E030E089
:1013A000A9010E943E0A882309F440C0CFE9D0E099
:1013B00017FF05C0119501951109C7E8D0E06E012E
:1013C000B8E1CB1AD10880E2E82EF12C0FC0D5018C
:1013D000B1CFFE0125913591459154910E191F0908
:1013E000C501B4010E94A40A4B015C01D501C401EE
:1013F0000E151F0574F72497F594E794CC16DD06B7
:10140000A9F78A2F880F8B2F881F8F3F49F020E084
:1014100030E0A901C501B4010E943E0A811106C055
:1014200082E290E0909300028093FF01C501B40135
:10143000CDB7DEB7ECE00C94B90B91110C94110B05
:10144000803219F089508550C8F70895FB01DC01FE
:101450004150504088F08D9181341CF08B350CF454
:10146000805E659161341CF06B350CF4605E861B08
:10147000611171F3990B0895881BFCCF0E94800ABB
:1014800008F481E00895E89409C097FB3EF4909534
:101490008095709561957F4F8F4F9F4F9923A9F04D
:1014A000F92F96E9BB279395F695879577956795DC
:1014B000B795F111F8CFFAF4BB0F11F460FF1BC020
:1014C0006F5F7F4F8F4F9F4F16C0882311F096E9B3
:1014D00011C0772321F09EE8872F762F05C0662361
:1014E00071F096E8862F70E060E02AF09A95660F1A
:1014F000771F881FDAF7880F9695879597F90895D3
:10150000990F0008550FAA0BE0E8FEEF1616170614
:10151000E807F907C0F012161306E407F50798F07C
:10152000621B730B840B950B39F40A2661F0232B95
:10153000242B252B21F408950A2609F4A140A69511
:101540008FEF811D811D08950E94B70A0C942B0B0B
:101550000E941D0B38F00E94240B20F0952311F0FF
:101560000C94140B0C941A0B11240C945F0B0E9416
:101570003C0B70F3959FC1F3950F50E0551F629F90
:10158000F001729FBB27F00DB11D639FAA27F00DDC
:10159000B11DAA1F649F6627B00DA11D661F829F03
:1015A0002227B00DA11D621F739FB00DA11D621FE8
:1015B000839FA00D611D221F749F3327A00D611D05
:1015C000231F849F600D211D822F762F6A2F1124E7
:1015D0009F5750409AF0F1F088234AF0EE0FFF1F1A
:1015E000BB1F661F771F881F91505040A9F79E3F71
:1015F000510580F00C94140B0C945F0B5F3FE4F3E7
:10160000983ED4F3869577956795B795F795E795C6
:101610009F5FC1F7FE2B880F911D9695879597F9CF
:10162000089599278827089597F99F6780E870E0C3
:1016300060E008959FEF80EC089500240A94161648
:10164000170618060906089500240A9412161306B0
:10165000140605060895092E0394000C11F488233E
:1016600052F0BB0F40F4BF2B11F460FF04C06F5F5A
:101670007F4F8F4F9F4F089557FD9058440F551F30
:1016800059F05F3F71F04795880F97FB991F61F004
:101690009F3F79F087950895121613061406551F7B
:1016A000F2CF4695F1DF08C0161617061806991FE7
:1016B000F1CF86957105610508940895E894BB27DC
:1016C00066277727CB0197F90895052E97FB1EF41F
:1016D00000940E947C0B57FD07D00E94CE0B07FCA4
:1016E00003D04EF40C947C0B509540953095219589
:1016F0003F4F4F4F5F4F089590958095709561953E
:101700007F4F8F4F9F4F08950E94F00BA59F900D24
:10171000B49F900DA49F800D911D11240895B7FFD3
:101720000C94840B0E94840B821B930B08952F92C0
:101730003F924F925F926F927F928F929F92AF9261
:10174000BF92CF92DF92EF92FF920F931F93CF93AE
:10175000DF93CDB7DEB7CA1BDB0B0FB6F894DEBF45
:101760000FBECDBF09942A88398848885F846E846B
:101770007D848C849B84AA84B984C884DF80EE80B5
:10178000FD800C811B81AA81B981CE0FD11D0FB6BE
:10179000F894DEBF0FBECDBFED010895A1E21A2E71
:1017A000AA1BBB1BFD010DC0AA1FBB1FEE1FFF1F05
:1017B000A217B307E407F50720F0A21BB30BE40B55
:1017C000F50B661F771F881F991F1A9469F760959C
:1017D0007095809590959B01AC01BD01CF01089556
:1017E000A29FB001B39FC001A39F700D811D112462
:1017F000911DB29F700D811D1124911D08955058A7
:10180000BB27AA270E94170C0C942B0B0E941D0BC0
:1018100038F00E94240B20F039F49F3F19F426F48D
:101820000C941A0B0EF4E095E7FB0C94140BE92FC3
:101830000E943C0B58F3BA17620773078407950799
:1018400020F079F4A6F50C945E0B0EF4E0950B2EC7
:10185000BA2FA02D0B01B90190010C01CA01A00102
:101860001124FF27591B99F0593F50F4503E68F15D
:101870001A16F040A22F232F342F4427585FF3CF9E
:10188000469537952795A795F0405395C9F77EF46F
:101890001F16BA0B620B730B840BBAF09150A1F0B8
:1018A000FF0FBB1F661F771F881FC2F70EC0BA0F3E
:1018B000621F731F841F48F4879577956795B795C6
:1018C000F7959E3F08F0B0CF9395880F08F09927C1
:1018D000EE0F9795879508950E94730C6894B11147
:1018E0000C945F0B08950E94440B88F09F5798F06A
:1018F000B92F9927B751B0F0E1F0660F771F881F15
:10190000991F1AF0BA95C9F714C0B13091F00E942E
:101910005E0BB1E008950C945E0B672F782F88273B
:10192000B85F39F0B93FCCF3869577956795B39555
:10193000D9F73EF490958095709561957F4F8F4FC4
:101940009F4F08950E94800A08F48FEF0895991B15
:1019500079E004C0991F961708F0961B881F7A95A6
:10196000C9F780950895EE0FFF1F0590F491E02DC3
:1019700009940F931F93CF93DF938230910510F456
:1019800082E090E0E0910302F091040230E020E078
:10199000B0E0A0E0309799F42115310509F44AC070
:1019A000281B390B24303105D8F58A819B816115BC
:1019B000710589F1FB0193838283FE0111C040818F
:1019C00051810281138148175907E0F048175907E0
:1019D00099F4109761F012960C93129713961C933A
:1019E0003296CF01DF91CF911F910F91089500930F
:1019F000030210930402F4CF2115310551F0421770
:101A0000530738F0A901DB019A01BD01DF01F8019C
:101A1000C1CFEF01F9CF9093040280930302CDCFA1
:101A2000FE01E20FF31F8193919322503109398314
:101A30002883D7CF2091010230910202232B41F459
:101A400020910201309103013093020220930102A0
:101A500020910001309101012115310541F42DB78C
:101A60003EB74091040150910501241B350BE091D4
:101A70000102F0910202E217F307A0F42E1B3F0BC4
:101A80002817390778F0AC014E5F5F4F24173507F0
:101A900048F04E0F5F1F5093020240930102819362
:101AA00091939FCFF0E0E0E09CCFCF93DF9300973E
:101AB000E9F0FC01329713821282A0910302B091E7
:101AC0000402ED0130E020E01097A1F42081318183
:101AD000820F931F209101023091020228173907CB
:101AE00009F061C0F0930202E0930102DF91CF910F
:101AF0000895EA01CE17DF07E8F54A815B819E0170
:101B000041155105B1F7E901FB83EA8349915991E8
:101B1000C40FD51FEC17FD0761F4808191810296F7
:101B2000840F951FE90199838883828193819B8328
:101B30008A83F0E0E0E012968D919C9113970097D4
:101B4000B9F52D913C911197CD010296820F931F0B
:101B500020910102309102022817390739F6309797
:101B600051F51092040210920302B0930202A09366
:101B70000102BCCFD383C28340815181840F951F62
:101B8000C817D90761F44E5F5F4F88819981480F6C
:101B9000591F518340838A819B81938382832115BE
:101BA000310509F0B0CFF0930402E09303029ECF19
:101BB000FD01DC01C0CF13821282D7CFB0E0A0E0DC
:101BC000E4EEFDE00C94990B8C01009751F4CB01ED
:101BD0000E94B90C8C01C801CDB7DEB7E0E10C94CE
:101BE000B50BFC01E60FF71F9C0122503109E217EB
:101BF000F30708F49DC0D901CD91DC911197C61768
:101C0000D70798F0C530D10530F3CE010497861779
:101C1000970708F3C61BD70B2297C193D1936D93F7
:101C20007C93CF010E94550DD6CF5B01AC1ABD0A43
:101C30004C018C0E9D1EA0910302B0910402512C08
:101C4000412CF12CE12C109731F5809101029091FB
:101C500002028815990509F05CC04616570608F07F
:101C600058C08091000190910101009741F48DB717
:101C70009EB74091040150910501841B950BE81714
:101C8000F90708F055C0F0930202E0930102F90150
:101C900071836083A0CF8D919C91119712966C9067
:101CA000129713967C901397A815B90559F56C01F6
:101CB00042E0C40ED11CCA14DB0420F1AC014A1965
:101CC0005B09DA011296159780F062827382518364
:101CD0004083D9016D937C93E114F10471F0D70135
:101CE0001396FC93EE93129776CF22968C0F9D1F3E
:101CF000F90191838083F301EFCFF0930402E09325
:101D0000030269CF4816590608F42C017D01D3015E
:101D10009ACFCB010E94B90C7C01009749F0AE012B
:101D2000B8010E949B0EC8010E94550D870153CF38
:101D300010E000E050CFFB01DC0102C001900D92E9
:101D400041505040D8F70895FC018191861721F049
:101D50008823D9F7992708953197CF010895FB017A
:101D6000DC0101900D920020E1F7089510E0CBE72F
:101D7000D0E004C0FE010E94B30C2196CC37D107FD
:061D8000C9F7F894FFCF43
:101D8600000005028000000000009C02FC01290200
:101D9600E9025A0238024C025374617274696E6722
:041DA600000D0A0022
:00000001FF
